{
  "_format": "hh-sol-artifact-1",
  "contractName": "Voting",
  "sourceName": "src/blockchain/contracts/Voting.sol",
  "abi": [
    {
      "inputs": [
        {
          "internalType": "string[]",
          "name": "candidateNames",
          "type": "string[]"
        }
      ],
      "stateMutability": "nonpayable",
      "type": "constructor"
    },
    {
      "inputs": [
        {
          "internalType": "uint256",
          "name": "",
          "type": "uint256"
        }
      ],
      "name": "candidates",
      "outputs": [
        {
          "internalType": "string",
          "name": "",
          "type": "string"
        }
      ],
      "stateMutability": "view",
      "type": "function"
    },
    {
      "inputs": [
        {
          "internalType": "string",
          "name": "candidate",
          "type": "string"
        }
      ],
      "name": "getVotes",
      "outputs": [
        {
          "internalType": "uint256",
          "name": "",
          "type": "uint256"
        }
      ],
      "stateMutability": "view",
      "type": "function"
    },
    {
      "inputs": [
        {
          "internalType": "string",
          "name": "candidate",
          "type": "string"
        }
      ],
      "name": "vote",
      "outputs": [],
      "stateMutability": "nonpayable",
      "type": "function"
    },
    {
      "inputs": [
        {
          "internalType": "address",
          "name": "",
          "type": "address"
        }
      ],
      "name": "voters",
      "outputs": [
        {
          "internalType": "bool",
          "name": "",
          "type": "bool"
        }
      ],
      "stateMutability": "view",
      "type": "function"
    },
    {
      "inputs": [
        {
          "internalType": "string",
          "name": "",
          "type": "string"
        }
      ],
      "name": "votes",
      "outputs": [
        {
          "internalType": "uint256",
          "name": "",
          "type": "uint256"
        }
      ],
      "stateMutability": "view",
      "type": "function"
    }
  ],
  "bytecode": "0x60806040523480156200001157600080fd5b5060405162001038380380620010388339818101604052810190620000379190620003d3565b80600290805190602001906200004f92919062000057565b505062000756565b828054828255906000526020600020908101928215620000a4579160200282015b82811115620000a35782518290816200009291906200066f565b509160200191906001019062000078565b5b509050620000b39190620000b7565b5090565b5b80821115620000db5760008181620000d19190620000df565b50600101620000b8565b5090565b508054620000ed906200045e565b6000825580601f1062000101575062000122565b601f01602090049060005260206000209081019062000121919062000125565b5b50565b5b808211156200014057600081600090555060010162000126565b5090565b6000604051905090565b600080fd5b600080fd5b600080fd5b6000601f19601f8301169050919050565b7f4e487b7100000000000000000000000000000000000000000000000000000000600052604160045260246000fd5b620001a8826200015d565b810181811067ffffffffffffffff82111715620001ca57620001c96200016e565b5b80604052505050565b6000620001df62000144565b9050620001ed82826200019d565b919050565b600067ffffffffffffffff82111562000210576200020f6200016e565b5b602082029050602081019050919050565b600080fd5b600080fd5b600067ffffffffffffffff8211156200024957620002486200016e565b5b62000254826200015d565b9050602081019050919050565b60005b838110156200028157808201518184015260208101905062000264565b60008484015250505050565b6000620002a46200029e846200022b565b620001d3565b905082815260208101848484011115620002c357620002c262000226565b5b620002d084828562000261565b509392505050565b600082601f830112620002f057620002ef62000158565b5b8151620003028482602086016200028d565b91505092915050565b6000620003226200031c84620001f2565b620001d3565b9050808382526020820190506020840283018581111562000348576200034762000221565b5b835b818110156200039657805167ffffffffffffffff81111562000371576200037062000158565b5b808601620003808982620002d8565b855260208501945050506020810190506200034a565b5050509392505050565b600082601f830112620003b857620003b762000158565b5b8151620003ca8482602086016200030b565b91505092915050565b600060208284031215620003ec57620003eb6200014e565b5b600082015167ffffffffffffffff8111156200040d576200040c62000153565b5b6200041b84828501620003a0565b91505092915050565b600081519050919050565b7f4e487b7100000000000000000000000000000000000000000000000000000000600052602260045260246000fd5b600060028204905060018216806200047757607f821691505b6020821081036200048d576200048c6200042f565b5b50919050565b60008190508160005260206000209050919050565b60006020601f8301049050919050565b600082821b905092915050565b600060088302620004f77fffffffffffffffffffffffffffffffffffffffffffffffffffffffffffffffff82620004b8565b620005038683620004b8565b95508019841693508086168417925050509392505050565b6000819050919050565b6000819050919050565b6000620005506200054a62000544846200051b565b62000525565b6200051b565b9050919050565b6000819050919050565b6200056c836200052f565b620005846200057b8262000557565b848454620004c5565b825550505050565b600090565b6200059b6200058c565b620005a881848462000561565b505050565b5b81811015620005d057620005c460008262000591565b600181019050620005ae565b5050565b601f8211156200061f57620005e98162000493565b620005f484620004a8565b8101602085101562000604578190505b6200061c6200061385620004a8565b830182620005ad565b50505b505050565b600082821c905092915050565b6000620006446000198460080262000624565b1980831691505092915050565b60006200065f838362000631565b9150826002028217905092915050565b6200067a8262000424565b67ffffffffffffffff8111156200069657620006956200016e565b5b620006a282546200045e565b620006af828285620005d4565b600060209050601f831160018114620006e75760008415620006d2578287015190505b620006de858262000651565b8655506200074e565b601f198416620006f78662000493565b60005b828110156200072157848901518255600182019150602085019450602081019050620006fa565b868310156200074157848901516200073d601f89168262000631565b8355505b6001600288020188555050505b505050505050565b6108d280620007666000396000f3fe608060405234801561001057600080fd5b50600436106100575760003560e01c80633477ee2e1461005c578063805265e51461008c578063a3ec138d146100bc578063b99ef1fa146100ec578063fc36e15b1461011c575b600080fd5b610076600480360381019061007191906103be565b610138565b604051610083919061047b565b60405180910390f35b6100a660048036038101906100a191906105d2565b6101e4565b6040516100b3919061062a565b60405180910390f35b6100d660048036038101906100d191906106a3565b61020c565b6040516100e391906106eb565b60405180910390f35b610106600480360381019061010191906105d2565b61022c565b604051610113919061062a565b60405180910390f35b610136600480360381019061013191906105d2565b61025a565b005b6002818154811061014857600080fd5b90600052602060002001600091509050805461016390610735565b80601f016020809104026020016040519081016040528092919081815260200182805461018f90610735565b80156101dc5780601f106101b1576101008083540402835291602001916101dc565b820191906000526020600020905b8154815290600101906020018083116101bf57829003601f168201915b505050505081565b60006001826040516101f691906107a2565b9081526020016040518091039020549050919050565b60006020528060005260406000206000915054906101000a900460ff1681565b6001818051602081018201805184825260208301602085012081835280955050505050506000915090505481565b6000803373ffffffffffffffffffffffffffffffffffffffff1673ffffffffffffffffffffffffffffffffffffffff16815260200190815260200160002060009054906101000a900460ff16156102e6576040517f08c379a00000000000000000000000000000000000000000000000000000000081526004016102dd90610805565b60405180910390fd5b60016000803373ffffffffffffffffffffffffffffffffffffffff1673ffffffffffffffffffffffffffffffffffffffff16815260200190815260200160002060006101000a81548160ff02191690831515021790555060018160405161034d91906107a2565b9081526020016040518091039020600081548092919061036c90610854565b919050555050565b6000604051905090565b600080fd5b600080fd5b6000819050919050565b61039b81610388565b81146103a657600080fd5b50565b6000813590506103b881610392565b92915050565b6000602082840312156103d4576103d361037e565b5b60006103e2848285016103a9565b91505092915050565b600081519050919050565b600082825260208201905092915050565b60005b8381101561042557808201518184015260208101905061040a565b60008484015250505050565b6000601f19601f8301169050919050565b600061044d826103eb565b61045781856103f6565b9350610467818560208601610407565b61047081610431565b840191505092915050565b600060208201905081810360008301526104958184610442565b905092915050565b600080fd5b600080fd5b7f4e487b7100000000000000000000000000000000000000000000000000000000600052604160045260246000fd5b6104df82610431565b810181811067ffffffffffffffff821117156104fe576104fd6104a7565b5b80604052505050565b6000610511610374565b905061051d82826104d6565b919050565b600067ffffffffffffffff82111561053d5761053c6104a7565b5b61054682610431565b9050602081019050919050565b82818337600083830152505050565b600061057561057084610522565b610507565b905082815260208101848484011115610591576105906104a2565b5b61059c848285610553565b509392505050565b600082601f8301126105b9576105b861049d565b5b81356105c9848260208601610562565b91505092915050565b6000602082840312156105e8576105e761037e565b5b600082013567ffffffffffffffff81111561060657610605610383565b5b610612848285016105a4565b91505092915050565b61062481610388565b82525050565b600060208201905061063f600083018461061b565b92915050565b600073ffffffffffffffffffffffffffffffffffffffff82169050919050565b600061067082610645565b9050919050565b61068081610665565b811461068b57600080fd5b50565b60008135905061069d81610677565b92915050565b6000602082840312156106b9576106b861037e565b5b60006106c78482850161068e565b91505092915050565b60008115159050919050565b6106e5816106d0565b82525050565b600060208201905061070060008301846106dc565b92915050565b7f4e487b7100000000000000000000000000000000000000000000000000000000600052602260045260246000fd5b6000600282049050600182168061074d57607f821691505b6020821081036107605761075f610706565b5b50919050565b600081905092915050565b600061077c826103eb565b6107868185610766565b9350610796818560208601610407565b80840191505092915050565b60006107ae8284610771565b915081905092915050565b7f596f75206861766520616c726561647920766f7465642e000000000000000000600082015250565b60006107ef6017836103f6565b91506107fa826107b9565b602082019050919050565b6000602082019050818103600083015261081e816107e2565b9050919050565b7f4e487b7100000000000000000000000000000000000000000000000000000000600052601160045260246000fd5b600061085f82610388565b91507fffffffffffffffffffffffffffffffffffffffffffffffffffffffffffffffff820361089157610890610825565b5b60018201905091905056fea264697066735822122042c5c4577015e508427c05e148f34e102bade473c3f50335a7dcba9aaab5c42664736f6c63430008180033",
  "linkReferences": {},
  "deployedLinkReferences": {}
}