{
  "_format": "hh-sol-artifact-1",
  "contractName": "Voting",
  "sourceName": "src/blockchain/contracts/Voting.sol",
  "abi": [
    {
      "anonymous": false,
      "inputs": [
        {
          "indexed": false,
          "internalType": "bytes32",
          "name": "votingId",
          "type": "bytes32"
        },
        {
          "indexed": false,
          "internalType": "string",
          "name": "voteName",
          "type": "string"
        }
      ],
      "name": "VotingCreated",
      "type": "event"
    },
    {
      "inputs": [
        {
          "internalType": "string",
          "name": "votingName",
          "type": "string"
        },
        {
          "internalType": "string[]",
          "name": "_candidates",
          "type": "string[]"
        }
      ],
      "name": "createVote",
      "outputs": [],
      "stateMutability": "nonpayable",
      "type": "function"
    },
    {
      "inputs": [
        {
          "internalType": "bytes32",
          "name": "voteId",
          "type": "bytes32"
        }
      ],
      "name": "getCandidates",
      "outputs": [
        {
          "internalType": "string[]",
          "name": "",
          "type": "string[]"
        }
      ],
      "stateMutability": "view",
      "type": "function"
    },
    {
      "inputs": [
        {
          "internalType": "bytes32",
          "name": "voteId",
          "type": "bytes32"
        },
        {
          "internalType": "string",
          "name": "candidate",
          "type": "string"
        }
      ],
      "name": "getVotes",
      "outputs": [
        {
          "internalType": "uint256",
          "name": "",
          "type": "uint256"
        }
      ],
      "stateMutability": "view",
      "type": "function"
    },
    {
      "inputs": [
        {
          "internalType": "bytes32",
          "name": "voteId",
          "type": "bytes32"
        },
        {
          "internalType": "string",
          "name": "candidate",
          "type": "string"
        }
      ],
      "name": "vote",
      "outputs": [],
      "stateMutability": "nonpayable",
      "type": "function"
    }
  ],
  "bytecode": "0x608060405234801561001057600080fd5b50610f95806100206000396000f3fe608060405234801561001057600080fd5b506004361061004c5760003560e01c80637469b4a71461005157806385b923ca1461006d57806390a3a11f1461009d578063fad65d80146100b9575b600080fd5b61006b60048036038101906100669190610670565b6100e9565b005b610087600480360381019061008291906106cc565b61023f565b604051610094919061083a565b60405180910390f35b6100b760048036038101906100b29190610942565b61032d565b005b6100d360048036038101906100ce9190610670565b6103ca565b6040516100e091906109d3565b60405180910390f35b60008083815260200190815260200160002060010160003373ffffffffffffffffffffffffffffffffffffffff1673ffffffffffffffffffffffffffffffffffffffff16815260200190815260200160002060009054906101000a900460ff1615610189576040517f08c379a000000000000000000000000000000000000000000000000000000000815260040161018090610a4b565b60405180910390fd5b600160008084815260200190815260200160002060010160003373ffffffffffffffffffffffffffffffffffffffff1673ffffffffffffffffffffffffffffffffffffffff16815260200190815260200160002060006101000a81548160ff021916908315150217905550600080838152602001908152602001600020600201816040516102179190610aa7565b9081526020016040518091039020600081548092919061023690610aed565b91905055505050565b6060600080838152602001908152602001600020600001805480602002602001604051908101604052809291908181526020016000905b8282101561032257838290600052602060002001805461029590610b64565b80601f01602080910402602001604051908101604052809291908181526020018280546102c190610b64565b801561030e5780601f106102e35761010080835404028352916020019161030e565b820191906000526020600020905b8154815290600101906020018083116102f157829003601f168201915b505050505081526020019060010190610276565b505050509050919050565b600082334260405160200161034493929190610c30565b604051602081830303815290604052805190602001209050600080600083815260200190815260200160002090508281600001908051906020019061038a929190610406565b507f0deba9d903709d5575c381399153ebab5dadd5c585b2740b838e37a7ba130ea982856040516103bc929190610cb1565b60405180910390a150505050565b6000806000848152602001908152602001600020600201826040516103ef9190610aa7565b908152602001604051809103902054905092915050565b82805482825590600052602060002090810192821561044e579160200282015b8281111561044d57825182908161043d9190610e8d565b5091602001919060010190610426565b5b50905061045b919061045f565b5090565b5b8082111561047f57600081816104769190610483565b50600101610460565b5090565b50805461048f90610b64565b6000825580601f106104a157506104c0565b601f0160209004906000526020600020908101906104bf91906104c3565b5b50565b5b808211156104dc5760008160009055506001016104c4565b5090565b6000604051905090565b600080fd5b600080fd5b6000819050919050565b610507816104f4565b811461051257600080fd5b50565b600081359050610524816104fe565b92915050565b600080fd5b600080fd5b6000601f19601f8301169050919050565b7f4e487b7100000000000000000000000000000000000000000000000000000000600052604160045260246000fd5b61057d82610534565b810181811067ffffffffffffffff8211171561059c5761059b610545565b5b80604052505050565b60006105af6104e0565b90506105bb8282610574565b919050565b600067ffffffffffffffff8211156105db576105da610545565b5b6105e482610534565b9050602081019050919050565b82818337600083830152505050565b600061061361060e846105c0565b6105a5565b90508281526020810184848401111561062f5761062e61052f565b5b61063a8482856105f1565b509392505050565b600082601f8301126106575761065661052a565b5b8135610667848260208601610600565b91505092915050565b60008060408385031215610687576106866104ea565b5b600061069585828601610515565b925050602083013567ffffffffffffffff8111156106b6576106b56104ef565b5b6106c285828601610642565b9150509250929050565b6000602082840312156106e2576106e16104ea565b5b60006106f084828501610515565b91505092915050565b600081519050919050565b600082825260208201905092915050565b6000819050602082019050919050565b600081519050919050565b600082825260208201905092915050565b60005b8381101561075f578082015181840152602081019050610744565b60008484015250505050565b600061077682610725565b6107808185610730565b9350610790818560208601610741565b61079981610534565b840191505092915050565b60006107b0838361076b565b905092915050565b6000602082019050919050565b60006107d0826106f9565b6107da8185610704565b9350836020820285016107ec85610715565b8060005b85811015610828578484038952815161080985826107a4565b9450610814836107b8565b925060208a019950506001810190506107f0565b50829750879550505050505092915050565b6000602082019050818103600083015261085481846107c5565b905092915050565b600067ffffffffffffffff82111561087757610876610545565b5b602082029050602081019050919050565b600080fd5b60006108a061089b8461085c565b6105a5565b905080838252602082019050602084028301858111156108c3576108c2610888565b5b835b8181101561090a57803567ffffffffffffffff8111156108e8576108e761052a565b5b8086016108f58982610642565b855260208501945050506020810190506108c5565b5050509392505050565b600082601f8301126109295761092861052a565b5b813561093984826020860161088d565b91505092915050565b60008060408385031215610959576109586104ea565b5b600083013567ffffffffffffffff811115610977576109766104ef565b5b61098385828601610642565b925050602083013567ffffffffffffffff8111156109a4576109a36104ef565b5b6109b085828601610914565b9150509250929050565b6000819050919050565b6109cd816109ba565b82525050565b60006020820190506109e860008301846109c4565b92915050565b600082825260208201905092915050565b7f596f75206861766520616c726561647920766f7465642e000000000000000000600082015250565b6000610a356017836109ee565b9150610a40826109ff565b602082019050919050565b60006020820190508181036000830152610a6481610a28565b9050919050565b600081905092915050565b6000610a8182610725565b610a8b8185610a6b565b9350610a9b818560208601610741565b80840191505092915050565b6000610ab38284610a76565b915081905092915050565b7f4e487b7100000000000000000000000000000000000000000000000000000000600052601160045260246000fd5b6000610af8826109ba565b91507fffffffffffffffffffffffffffffffffffffffffffffffffffffffffffffffff8203610b2a57610b29610abe565b5b600182019050919050565b7f4e487b7100000000000000000000000000000000000000000000000000000000600052602260045260246000fd5b60006002820490506001821680610b7c57607f821691505b602082108103610b8f57610b8e610b35565b5b50919050565b600073ffffffffffffffffffffffffffffffffffffffff82169050919050565b6000610bc082610b95565b9050919050565b60008160601b9050919050565b6000610bdf82610bc7565b9050919050565b6000610bf182610bd4565b9050919050565b610c09610c0482610bb5565b610be6565b82525050565b6000819050919050565b610c2a610c25826109ba565b610c0f565b82525050565b6000610c3c8286610a76565b9150610c488285610bf8565b601482019150610c588284610c19565b602082019150819050949350505050565b610c72816104f4565b82525050565b6000610c8382610725565b610c8d81856109ee565b9350610c9d818560208601610741565b610ca681610534565b840191505092915050565b6000604082019050610cc66000830185610c69565b8181036020830152610cd88184610c78565b90509392505050565b60008190508160005260206000209050919050565b60006020601f8301049050919050565b600082821b905092915050565b600060088302610d437fffffffffffffffffffffffffffffffffffffffffffffffffffffffffffffffff82610d06565b610d4d8683610d06565b95508019841693508086168417925050509392505050565b6000819050919050565b6000610d8a610d85610d80846109ba565b610d65565b6109ba565b9050919050565b6000819050919050565b610da483610d6f565b610db8610db082610d91565b848454610d13565b825550505050565b600090565b610dcd610dc0565b610dd8818484610d9b565b505050565b5b81811015610dfc57610df1600082610dc5565b600181019050610dde565b5050565b601f821115610e4157610e1281610ce1565b610e1b84610cf6565b81016020851015610e2a578190505b610e3e610e3685610cf6565b830182610ddd565b50505b505050565b600082821c905092915050565b6000610e6460001984600802610e46565b1980831691505092915050565b6000610e7d8383610e53565b9150826002028217905092915050565b610e9682610725565b67ffffffffffffffff811115610eaf57610eae610545565b5b610eb98254610b64565b610ec4828285610e00565b600060209050601f831160018114610ef75760008415610ee5578287015190505b610eef8582610e71565b865550610f57565b601f198416610f0586610ce1565b60005b82811015610f2d57848901518255600182019150602085019450602081019050610f08565b86831015610f4a5784890151610f46601f891682610e53565b8355505b6001600288020188555050505b50505050505056fea2646970667358221220d6f2731a53b36205c789e6f293260da9b9d829bceb39a2c1b45f16c51142437764736f6c63430008180033",
  "linkReferences": {},
  "deployedLinkReferences": {}
}